:100000000C943A000C945B020C945B020C945B021F
:100010000C945B020C945B020C945B020C945B02EC
:100020000C945B020C945B020C945B020C945B02DC
:100030000C945B020C94C3010C945B020C945B0265
:100040000C945B020C945B020C945B020C945B02BC
:100050000C945B020C945B020C945B020C945B02AC
:100060000C945B020C945B02010001120004BA01C3
:100070001201148011241FBECFEFD8E0DEBFCDBF28
:10008000E8E6F0E040E017C0B591A59135912591E3
:10009000059107FD0CC095918591EF01F92FE82F8F
:1000A00005900D92A217B307D9F7FE0104C01D9267
:1000B000A217B307E1F7E437F40731F70E94EF0125
:0800C0000C946200F894FFCFDC
:1000C8003133000000003331313100003331333136
:1000D80000003331310000003100000000003131F0
:1000E8003331000033333100000031313131000049
:1000F8003131000000003133333300003331330035
:100108000000313331310000333300000000333157
:100118000000000033333300000031333331000076
:1001280033333133000031333100000031313100D5
:10013800000033000000000031313300000031318D
:1001480031330000313333000000333131330000E4
:0C01580033313333000033333131000009
:08016400410042424200430049
:10016C00CF93DF9300D000D000D0CDB7DEB78E8315
:10017C0081E08C838E818F7D8E838E81682F61547C
:10018C00862F8C838C81682F70E028EC30E040E067
:10019C00CB01880F991F860F971F880F991F092E67
:1001AC00000CAA0B820F931FA41FFC019A2F8491A1
:1001BC0097FD808189831B821A823AC00E94390282
:1001CC008981682F6053862F8D838D81882F90E0D5
:1001DC000E9417020E944A0280910C0190910D011D
:1001EC008D838D81882F90E00E9417028A819B81DC
:1001FC0001969B838A838C81682F70E028EC30E019
:10020C0040E0CB01880F991F860F971F880F991F0D
:10021C006A817B81860F971F092E000CAA0B820F17
:10022C00931FA41FFC019A2F849197FD80818983D1
:10023C008981882309F0C2CF000026960FB6F89466
:0C024C00DEBF0FBECDBFDF91CF91089543
:10025800CF93DF9300D000D000D0CDB7DEB76C834A
:100268007D838E838C819D81AE8189839A83AB83C4
:1002780029C089819A81AB81FC019A2F849197FDCD
:100288008081803239F480910E0190910F010E9493
:10029800170210C089819A81AB81FC019A2F849141
:1002A80097FD80810E94B600809110019091110104
:1002B8000E94170289819A81AB810196A11D8983C9
:1002C8009A83AB8389819A81AB81FC019A2F8491AF
:1002D80097FD8081882369F6000026960FB6F8946A
:0C02E800DEBF0FBECDBFDF91CF910895A7
:1002F400CF93DF93CDB7DEB727970FB6F894DEBF61
:100304000FBECDBF9F838E831A8219821EC029819E
:100314003A81C901880F991F820F931F2E813F8153
:10032400820F931FFC0180819181A2818B839C8326
:10033400AD838B819C81AD81BC018A2F0E942C01ED
:1003440089819A8101969A83898329813A81C90195
:10035400880F991F820F931F2E813F81820F931F55
:10036400FC0180819181A281892B8A2B81F6000076
:1003740027960FB6F894DEBF0FBECDBFDF91CF91A5
:020384000895DA
:100386001F920F9200905F000F9211242F933F93BC
:100396008F939F93EF93FF93CF93DF93CDB7DEB702
:1003A60084E890E020E63AEEFC013183208381E088
:1003B60090E090931301809312010000DF91CF919A
:1003C600FF91EF919F918F913F912F910F90009206
:0803D6005F000F901F901895C5
:1003DE00CF93DF93CDB7DEB78AE290E020E1FC0148
:1003EE0020838BE290E0FC01108284E890E020E60E
:1003FE003AEEFC013183208380E890E0FC0110820C
:10040E0081E890E025E0FC0120838FE690E021E07A
:10041E00FC012083789480E091E00E947A01FFCF66
:10042E00CF93DF9300D0CDB7DEB79A8389838091C7
:10043E00120190911301892BD1F310921301109296
:10044E00120189819A8101979A83898389819A8180
:10045E00892B09F0ECCF000000000F900F90DF9178
:04046E00CF9108958D
:10047200CF93DF93CDB7DEB78BE290E02BE230E093
:10048200F90120812061FC0120830000DF91CF91DE
:020492000895CB
:10049400CF93DF93CDB7DEB78BE290E02BE230E071
:1004A400F90120812F7EFC0120830000DF91CF9190
:0204B4000895A9
:0404B6000C940000A2
:0C04BA006401006601006A0100000000FF
:0204C60005002F
:0204C80007002B
:0204CA0003002D
:00000001FF
