:100000000C943A000C942E070C942E070C942E0797
:100010000C942E070C942E070C942E070C942E078C
:100020000C942E070C942E070C942E070C942E077C
:100030000C942E070C942E070C942E070C942E076C
:100040000C942E070C942E070C942E070C942E075C
:100050000C942E070C942E070C942E070C942E074C
:100060000C942E070C942E0701000102800102015E
:1000700016000E6011241FBECFEFD8E0DEBFCDBF4B
:10008000E8E6F0E040E017C0B591A59135912591E3
:10009000059107FD0CC095918591EF01F92FE82F8F
:1000A00005900D92A217B307D9F7FE0104C01D9267
:1000B000A217B307E1F7E437F40731F70E94B40061
:0800C0000C946200F894FFCFDC
:1000C8003133000000003331313100003331333136
:1000D80000003331310000003100000000003131F0
:1000E8003331000033333100000031313131000049
:1000F8003131000000003133333300003331330035
:100108000000313331310000333300000000333157
:100118000000000033333300000031333331000076
:1001280033333133000031333100000031313100D5
:10013800000033000000000031313300000031318D
:1001480031330000313333000000333131330000E4
:0C01580033313333000033333131000009
:0401640053004F00F5
:10016800CF93DF93CDB7DEB7E8970FB6F894DEBF2D
:100178000FBECDBF8AE290E020E1FC01208380E041
:1001880090E0AAEFB4E48D839E83AF83B88720E024
:1001980030E04AE755E46D817E818F8198850E9421
:1001A8002707DC01CB018B8F9C8FAD8FBE8F20E0A2
:1001B80030E040E85FE36B8D7C8D8D8D9E8D0E94D5
:1001C8001D0788232CF481E090E098A38F8F3FC00F
:1001D80020E03FEF4FE757E46B8D7C8D8D8D9E8D32
:1001E8000E94220718164CF520E030E040E251E466
:1001F8006D817E818F8198850E942707DC01CB0164
:10020800BC01CD010E945A06DC01CB0198A38F8F57
:100218000FC080E991E09AA389A389A19AA10197C7
:10022800F1F79AA389A38F8D98A1019798A38F8F2F
:100238008F8D98A1892B69F714C06B8D7C8D8D8D5E
:100248009E8D0E945A06DC01CB0198A38F8F8F8D5B
:1002580098A19CA38BA38BA19CA10197F1F79CA3C8
:100268008BA382E091E00E94D40580E090E0AAE7A9
:10027800B4E48D879E87AF87B88B20E030E04AE7EB
:1002880055E46D857E858F8598890E942707DC0156
:10029800CB01898B9A8BAB8BBC8B20E030E040E89C
:1002A8005FE369897A898B899C890E941D07882365
:1002B8002CF481E090E09E8B8D8B3FC020E03FEFD7
:1002C8004FE757E469897A898B899C890E942207BC
:1002D80018164CF520E030E040E251E46D857E854B
:1002E8008F8598890E942707DC01CB01BC01CD01CD
:1002F8000E945A06DC01CB019E8B8D8B0FC080E9D2
:1003080091E0988F8F8B8F89988D0197F1F7988F4F
:100318008F8B8D899E8901979E8B8D8B8D899E8968
:10032800892B69F714C069897A898B899C890E940D
:100338005A06DC01CB019E8B8D8B8D899E899A8F05
:10034800898F898D9A8D0197F1F79A8F898F0E94ED
:10035800CF0680E090E0AAE7B4E489879A87AB8764
:10036800BC8720E030E04AE755E469857A858B85CB
:100378009C850E942707DC01CB018FA798ABA9AB0E
:10038800BAAB20E030E040E85FE36FA578A989A91F
:100398009AA90E941D0788232CF481E090E09CAB69
:1003A8008BAB3FC020E03FEF4FE757E46FA578A93C
:1003B80089A99AA90E94220718164CF520E030E076
:1003C80040E251E469857A858B859C850E942707E0
:1003D800DC01CB01BC01CD010E945A06DC01CB0136
:1003E8009CAB8BAB0FC080E991E09EAB8DAB8DA928
:1003F8009EA90197F1F79EAB8DAB8BA99CA901979C
:100408009CAB8BAB8BA99CA9892B69F714C06FA5F2
:1004180078A989A99AA90E945A06DC01CB019CAB4C
:100428008BAB8BA99CA998AF8FAB8FA998AD01977F
:10043800F1F798AF8FAB0E94E00680E090E0AAE762
:10044800B4E489839A83AB83BC8320E030E04AE735
:1004580055E469817A818B819C810E942707DC01A0
:10046800CB018DA39EA3AFA3B8A720E030E040E85E
:100478005FE36DA17EA18FA198A50E941D07882327
:100488002CF481E090E09AA789A73FC020E03FEFD5
:100498004FE757E46DA17EA18FA198A50E9422077E
:1004A80018164CF520E030E040E251E469817A8189
:1004B8008B819C810E942707DC01CB01BC01CD0107
:1004C8000E945A06DC01CB019AA789A70FC080E9D0
:1004D80091E09CA78BA78BA59CA50197F1F79CA7FA
:1004E8008BA789A59AA501979AA789A789A59AA5EF
:1004F800892B69F714C06DA17EA18FA198A50E94D0
:100508005A06DC01CB019AA789A789A59AA59EA7B7
:100518008DA78DA59EA50197F1F79EA78DA717CF4B
:10052800CF93DF93CDB7DEB7A2970FB6F894DEBFAF
:100538000FBECDBF8AA38AA18F7D8AA38AA1882FE7
:1005480090E0815491099D838C8328EC30E040E051
:100558006C817D81CB01880F991F860F971F880FAB
:10056800991F092E000CAA0B820F931FA41FFC01D0
:100578009A2F849197FD808189831B821A8243C1B7
:100588000E94CF068981882F90E0C097909301013F
:100598008093000140910E0150910F0120910001BC
:1005A80030910101429FC001439F900D529F900DD1
:1005B8001124092E000CAA0BBB0BBC01CD010E9413
:1005C8001F06DC01CB018E839F83A887B98720E0B3
:1005D80030E04AE755E46E817F81888599850E94DD
:1005E8002707DC01CB01888F998FAA8FBB8F20E06A
:1005F80030E040E85FE3688D798D8A8D9B8D0E949D
:100608001D0788232CF481E090E09D8F8C8F3FC0DC
:1006180020E03FEF4FE757E4688D798D8A8D9B8DF9
:100628000E94220718164CF520E030E040E251E421
:100638006E817F81888599850E942707DC01CB011F
:10064800BC01CD010E945A06DC01CB019D8F8C8F25
:100658000FC080E991E09F8F8E8F8E8D9F8D0197BF
:10066800F1F79F8F8E8F8C8D9D8D01979D8F8C8F2D
:100678008C8D9D8D892B69F714C0688D798D8A8D35
:100688009B8D0E945A06DC01CB019D8F8C8F8C8D2F
:100698009D8D99A388A388A199A10197F1F799A3A2
:1006A80088A30E94E0068091100190911101909317
:1006B80001018093000140910E0150910F0120919A
:1006C800000130910101429FC001439F900D529F4C
:1006D800900D1124092E000CAA0BBB0BBC01CD01F7
:1006E8000E941F06DC01CB018A879B87AC87BD87E8
:1006F80020E030E04AE755E46A857B858C859D8556
:100708000E942707DC01CB018E879F87A88BB98BB6
:1007180020E030E040E85FE36E857F85888999892D
:100728000E941D0788232CF481E090E09B8B8A8B24
:100738003FC020E03FEF4FE757E46E857F8588890B
:1007480099890E94220718164CF520E030E040E213
:1007580051E46A857B858C859D850E942707DC018D
:10076800CB01BC01CD010E945A06DC01CB019B8B59
:100778008A8B0FC080E991E09D8B8C8B8C899D8939
:100788000197F1F79D8B8C8B8A899B8901979B8BAD
:100798008A8B8A899B89892B69F714C06E857F8526
:1007A800888999890E945A06DC01CB019B8B8A8B28
:1007B8008A899B899F8B8E8B8E899F890197F1F7F8
:1007C8009F8B8E8B8A819B8101969B838A8328ECE1
:1007D80030E040E06C817D81CB01880F991F860F46
:1007E800971F880F991F6A817B81860F971F092E93
:1007F800000CAA0B820F931FA41FFC019A2F84914F
:1008080097FD808189838981882309F0B9CE00000A
:10081800A2960FB6F894DEBF0FBECDBFDF91CF9181
:02082800089531
:10082A00CF93DF93CDB7DEB7A2970FB6F894DEBFAA
:10083A000FBECDBF68A379A38AA388A199A1AAA153
:10084A0089839A83AB832CC189819A81AB81FC010C
:10085A009A2F849197FD8081803209F088C0409157
:10086A000E0150910F012091120130911301429F04
:10087A00C001439F900D529F900D1124092E000C28
:10088A00AA0BBB0BBC01CD010E941F06DC01CB01E8
:10089A0088879987AA87BB8720E030E04AE755E432
:1008AA00688579858A859B850E942707DC01CB01AB
:1008BA008C879D87AE87BF8720E030E040E85FE302
:1008CA006C857D858E859F850E941D0788232CF463
:1008DA0081E090E0998B888B3FC020E03FEF4FE7A3
:1008EA0057E46C857D858E859F850E9422071816A0
:1008FA004CF520E030E040E251E4688579858A854C
:10090A009B850E942707DC01CB01BC01CD010E9417
:10091A005A06DC01CB01998B888B0FC080E991E0E4
:10092A009B8B8A8B8A899B890197F1F79B8B8A8B90
:10093A00888999890197998B888B88899989892BC4
:10094A0069F7A6C06C857D858E859F850E945A06AB
:10095A00DC01CB01998B888B888999899D8B8C8B3B
:10096A008C899D890197F1F79D8B8C8B91C0898128
:10097A009A81AB81FC019A2F849197FD80810E9414
:10098A00940240910E0150910F012091140130916F
:10099A001501429FC001439F900D529F900D112453
:1009AA00092E000CAA0BBB0BBC01CD010E941F062D
:1009BA00DC01CB018C839D83AE83BF8320E030E0D2
:1009CA004AE755E46C817D818E819F810E942707C9
:1009DA00DC01CB018E8B9F8BA88FB98F20E030E092
:1009EA0040E85FE36E897F89888D998D0E941D0793
:1009FA0088232CF481E090E09B8F8A8F3FC020E00F
:100A0A003FEF4FE757E46E897F89888D998D0E9461
:100A1A00220718164CF520E030E040E251E46C81E0
:100A2A007D818E819F810E942707DC01CB01BC0159
:100A3A00CD010E945A06DC01CB019B8F8A8F0FC021
:100A4A0080E991E09D8F8C8F8C8D9D8D0197F1F7B8
:100A5A009D8F8C8F8A8D9B8D01979B8F8A8F8A8D14
:100A6A009B8D892B69F714C06E897F89888D998D32
:100A7A000E945A06DC01CB019B8F8A8F8A8D9B8D3F
:100A8A009F8F8E8F8E8D9F8D0197F1F79F8F8E8FFF
:100A9A0089819A81AB810196A11D89839A83AB834F
:100AAA0089819A81AB81FC019A2F849197FD80817B
:100ABA00882309F0C9CE0000A2960FB6F894DEBFCB
:0A0ACA000FBECDBFDF91CF9108955C
:100AD4000FC00E94090738F00E94100720F09523E8
:100AE40011F00C9417070C942B0711240C94030792
:100AF4000E94AD0670F3959FC1F3950F50E0551F0A
:100B0400629FF001729FBB27F00DB11D639FAA275E
:100B1400F00DB11DAA1F649F6627B00DA11D661FAD
:100B2400829F2227B00DA11D621F739FB00DA11DCE
:100B3400621F839FA00D611D221F749F3327A00D88
:100B4400611D231F849F600D211D822F762F6A2F24
:100B540011249F5750409AF0F1F088234AF0EE0F89
:100B6400FF1FBB1F661F771F881F91505040A9F7B6
:100B74009E3F510580F00C9417070C9403075F3FC8
:100B8400E4F3983ED4F3869577956795B795F795F2
:100B9400E7959F5FC1F7FE2B880F911D969587956A
:040BA40097F9089520
:100BA800CF93DF93CDB7DEB727970FB6F894DEBFA4
:100BB8000FBECDBF9F838E831A8219821EC02981E2
:100BC8003A81C901880F991F820F931F2E813F8197
:100BD800820F931FFC0180819181A2818B839C836A
:100BE800AD838B819C81AD81BC018A2F0E94150445
:100BF80089819A8101969A83898329813A81C901D9
:100C0800880F991F820F931F2E813F81820F931F98
:100C1800FC0180819181A281892B8A2B81F60000B9
:100C280027960FB6F894DEBF0FBECDBFDF91CF91E8
:020C380008951D
:100C3A00E89409C097FB3EF490958095709561956C
:100C4A007F4F8F4F9F4F9923A9F0F92F96E9BB2722
:100C5A009395F695879577956795B795F111F8CF9E
:100C6A00FAF4BB0F11F460FF1BC06F5F7F4F8F4F09
:100C7A009F4F16C0882311F096E911C0772321F0FF
:100C8A009EE8872F762F05C0662371F096E8862F97
:100C9A0070E060E02AF09A95660F771F881FDAF7EE
:0A0CAA00880F9695879597F9089535
:100CB4000E94B50688F09F5798F0B92F9927B7512D
:100CC400B0F0E1F0660F771F881F991F1AF0BA95EC
:100CD400C9F714C0B13091F00E940207B1E0089541
:100CE4000C940207672F782F8827B85F39F0B93F33
:100CF400CCF3869577956795B395D9F73EF490959F
:0E0D04008095709561957F4F8F4F9F4F08959A
:100D1200990F0008550FAA0BE0E8FEEF161617060A
:100D2200E807F907C0F012161306E407F50798F072
:100D3200621B730B840B950B39F40A2661F0232B8B
:100D4200242B252B21F408950A2609F4A140A69507
:080D52008FEF811D811D089542
:100D5A0057FD9058440F551F59F05F3F71F0479562
:100D6A00880F97FB991F61F09F3F79F08795089547
:100D7A00121613061406551FF2CF4695F1DF08C066
:100D8A00161617061806991FF1CF86957105610583
:040D9A00089408951C
:100D9E00CF93DF93CDB7DEB78BE290E02BE230E05E
:100DAE00F90120812061FC0120830000DF91CF91A9
:020DBE00089596
:100DC000CF93DF93CDB7DEB78BE290E02BE230E03C
:100DD000F90120812F7EFC0120830000DF91CF915B
:020DE000089574
:100DE200092E0394000C11F4882352F0BB0F40F437
:100DF200BF2B11F460FF04C06F5F7F4F8F4F9F4F77
:020E0200089551
:0E0E0400E894BB2766277727CB0197F908955E
:0E0E120000240A9416161706180609060895FD
:0E0E200000240A9412161306140605060895FF
:0C0E2E0097F99F6780E870E060E008958D
:0A0E3A000E94890608F481E0089583
:0A0E44000E94890608F48FEF08955C
:080E4E000E946A050C94F106F4
:060E56009FEF80EC0895FF
:040E5C000C940000F2
:0C0E600064010066010064010000000055
:020E6C00F4018F
:020E6E0005007D
:020E7000070079
:020E720003007B
:00000001FF
