:100000000C943D000C9462020C9462020C94620207
:100010000C9462020C9462020C9462020C946202D0
:100020000C9462020C9462020C9462020C946202C0
:100030000C9462020C94CA010C9462020C94620249
:100040000C9462020C9462020C9462020C946202A0
:100050000C9462020C9462020C9462020C94620290
:100060000C9462020C946202010001028001020100
:10007000140004C801140116800011241FBECFEF24
:10008000D8E0DEBFCDBFE8E6F0E040E017C0B591B4
:10009000A59135912591059107FD0CC0959185910C
:1000A000EF01F92FE82F05900D92A217B307D9F7AA
:1000B000FE0104C01D92A217B307E1F7E937F40768
:0E00C00031F70E94F6010C946500F894FFCF12
:1000CE003133000000003331313100003331333130
:1000DE0000003331310000003100000000003131EA
:1000EE003331000033333100000031313131000043
:1000FE00313100000000313333330000333133002F
:10010E000000313331310000333300000000333151
:10011E000000000033333300000031333331000070
:10012E0033333133000031333100000031313100CF
:10013E000000330000000000313133000000313187
:10014E0031330000313333000000333131330000DE
:0C015E0033313333000033333131000003
:04016A0053004F00EF
:10016E00CF93DF9300D000D000D0CDB7DEB78E8313
:10017E008E818F7D8E838E81882F90E081549109A0
:10018E009D838C832EEC30E040E06C817D81CB0131
:10019E00880F991F860F971F880F991F092E000C25
:1001AE00AA0B820F931FA41FFC019A2F849197FD17
:1001BE00808189831B821A8241C00E9440028981FC
:1001CE00882F90E0C0979093010180930001809159
:1001DE000001909101010E941E020E945102809125
:1001EE000E0190910F019093010180930001809177
:1001FE000001909101010E941E028A819B8101964D
:10020E009B838A832EEC30E040E06C817D81CB01B4
:10021E00880F991F860F971F880F991F6A817B8100
:10022E00860F971F092E000CAA0B820F931FA41F77
:10023E00FC019A2F849197FD80818983898188237F
:10024E0009F0BBCF000026960FB6F894DEBF0FBEA6
:08025E00CDBFDF91CF9108959F
:10026600CF93DF9300D000D000D0CDB7DEB76C833C
:100276007D838E838C819D81AE8189839A83AB83B6
:1002860029C089819A81AB81FC019A2F849197FDBF
:100296008081803239F480911001909111010E9481
:1002A6001E0210C089819A81AB81FC019A2F84912C
:1002B60097FD80810E94B7008091120190911301F1
:1002C6000E941E0289819A81AB810196A11D8983B4
:1002D6009A83AB8389819A81AB81FC019A2F8491A1
:1002E60097FD8081882369F6000026960FB6F8945C
:0C02F600DEBF0FBECDBFDF91CF91089599
:10030200CF93DF93CDB7DEB727970FB6F894DEBF52
:100312000FBECDBF9F838E831A8219821EC0298190
:100322003A81C901880F991F820F931F2E813F8145
:10033200820F931FFC0180819181A2818B839C8318
:10034200AD838B819C81AD81BC018A2F0E943301D8
:1003520089819A8101969A83898329813A81C90187
:10036200880F991F820F931F2E813F81820F931F47
:10037200FC0180819181A281892B8A2B81F6000068
:1003820027960FB6F894DEBF0FBECDBFDF91CF9197
:020392000895CC
:100394001F920F9200905F000F9211242F933F93AE
:1003A4008F939F93EF93FF93CF93DF93CDB7DEB7F4
:1003B40084E890E020E63AEEFC013183208381E07A
:1003C40090E090931501809314010000DF91CF9188
:1003D400FF91EF919F918F913F912F910F900092F8
:0803E4005F000F901F901895B7
:1003EC00CF93DF93CDB7DEB78AE290E020E1FC013A
:1003FC0020838BE290E0FC01108284E890E020E600
:10040C003AEEFC013183208380E890E0FC011082FD
:10041C0081E890E025E0FC0120838FE690E021E06C
:10042C00FC012083789482E091E00E948101FFCF4F
:10043C00CF93DF9300D0CDB7DEB79A8389838091B9
:10044C00140190911501892BD1F310921501109282
:10045C00140189819A8101979A83898389819A8170
:10046C00892B09F0ECCF000000000F900F90DF916A
:04047C00CF9108957F
:10048000CF93DF93CDB7DEB78BE290E02BE230E085
:10049000F90120812061FC0120830000DF91CF91D0
:0204A0000895BD
:1004A200CF93DF93CDB7DEB78BE290E02BE230E063
:1004B200F90120812F7EFC0120830000DF91CF9182
:0204C20008959B
:0404C4000C94000094
:0C04C8006A01006C01006A0100000000E5
:0204D400050021
:0204D60007001D
:0204D80003001F
:00000001FF
